{
  "_format": "hh-sol-artifact-1",
  "contractName": "GREENLAND",
  "sourceName": "contracts/GREENLAND.sol",
  "abi": [
    {
      "inputs": [],
      "name": "ECDSAInvalidSignature",
      "type": "error"
    },
    {
      "inputs": [
        {
          "internalType": "uint256",
          "name": "length",
          "type": "uint256"
        }
      ],
      "name": "ECDSAInvalidSignatureLength",
      "type": "error"
    },
    {
      "inputs": [
        {
          "internalType": "bytes32",
          "name": "s",
          "type": "bytes32"
        }
      ],
      "name": "ECDSAInvalidSignatureS",
      "type": "error"
    },
    {
      "inputs": [
        {
          "internalType": "address",
          "name": "spender",
          "type": "address"
        },
        {
          "internalType": "uint256",
          "name": "allowance",
          "type": "uint256"
        },
        {
          "internalType": "uint256",
          "name": "needed",
          "type": "uint256"
        }
      ],
      "name": "ERC20InsufficientAllowance",
      "type": "error"
    },
    {
      "inputs": [
        {
          "internalType": "address",
          "name": "sender",
          "type": "address"
        },
        {
          "internalType": "uint256",
          "name": "balance",
          "type": "uint256"
        },
        {
          "internalType": "uint256",
          "name": "needed",
          "type": "uint256"
        }
      ],
      "name": "ERC20InsufficientBalance",
      "type": "error"
    },
    {
      "inputs": [
        {
          "internalType": "address",
          "name": "approver",
          "type": "address"
        }
      ],
      "name": "ERC20InvalidApprover",
      "type": "error"
    },
    {
      "inputs": [
        {
          "internalType": "address",
          "name": "receiver",
          "type": "address"
        }
      ],
      "name": "ERC20InvalidReceiver",
      "type": "error"
    },
    {
      "inputs": [
        {
          "internalType": "address",
          "name": "sender",
          "type": "address"
        }
      ],
      "name": "ERC20InvalidSender",
      "type": "error"
    },
    {
      "inputs": [
        {
          "internalType": "address",
          "name": "spender",
          "type": "address"
        }
      ],
      "name": "ERC20InvalidSpender",
      "type": "error"
    },
    {
      "inputs": [
        {
          "internalType": "uint256",
          "name": "deadline",
          "type": "uint256"
        }
      ],
      "name": "ERC2612ExpiredSignature",
      "type": "error"
    },
    {
      "inputs": [
        {
          "internalType": "address",
          "name": "signer",
          "type": "address"
        },
        {
          "internalType": "address",
          "name": "owner",
          "type": "address"
        }
      ],
      "name": "ERC2612InvalidSigner",
      "type": "error"
    },
    {
      "inputs": [
        {
          "internalType": "address",
          "name": "account",
          "type": "address"
        },
        {
          "internalType": "uint256",
          "name": "currentNonce",
          "type": "uint256"
        }
      ],
      "name": "InvalidAccountNonce",
      "type": "error"
    },
    {
      "inputs": [],
      "name": "InvalidInitialization",
      "type": "error"
    },
    {
      "inputs": [],
      "name": "NotInitializing",
      "type": "error"
    },
    {
      "inputs": [
        {
          "internalType": "address",
          "name": "owner",
          "type": "address"
        }
      ],
      "name": "OwnableInvalidOwner",
      "type": "error"
    },
    {
      "inputs": [
        {
          "internalType": "address",
          "name": "account",
          "type": "address"
        }
      ],
      "name": "OwnableUnauthorizedAccount",
      "type": "error"
    },
    {
      "anonymous": false,
      "inputs": [
        {
          "indexed": true,
          "internalType": "address",
          "name": "owner",
          "type": "address"
        },
        {
          "indexed": true,
          "internalType": "address",
          "name": "spender",
          "type": "address"
        },
        {
          "indexed": false,
          "internalType": "uint256",
          "name": "value",
          "type": "uint256"
        }
      ],
      "name": "Approval",
      "type": "event"
    },
    {
      "anonymous": false,
      "inputs": [],
      "name": "EIP712DomainChanged",
      "type": "event"
    },
    {
      "anonymous": false,
      "inputs": [
        {
          "indexed": false,
          "internalType": "uint64",
          "name": "version",
          "type": "uint64"
        }
      ],
      "name": "Initialized",
      "type": "event"
    },
    {
      "anonymous": false,
      "inputs": [
        {
          "indexed": true,
          "internalType": "address",
          "name": "previousOwner",
          "type": "address"
        },
        {
          "indexed": true,
          "internalType": "address",
          "name": "newOwner",
          "type": "address"
        }
      ],
      "name": "OwnershipTransferred",
      "type": "event"
    },
    {
      "anonymous": false,
      "inputs": [
        {
          "indexed": true,
          "internalType": "address",
          "name": "from",
          "type": "address"
        },
        {
          "indexed": true,
          "internalType": "address",
          "name": "to",
          "type": "address"
        },
        {
          "indexed": false,
          "internalType": "uint256",
          "name": "value",
          "type": "uint256"
        }
      ],
      "name": "Transfer",
      "type": "event"
    },
    {
      "inputs": [],
      "name": "DOMAIN_SEPARATOR",
      "outputs": [
        {
          "internalType": "bytes32",
          "name": "",
          "type": "bytes32"
        }
      ],
      "stateMutability": "view",
      "type": "function"
    },
    {
      "inputs": [
        {
          "internalType": "address",
          "name": "owner",
          "type": "address"
        },
        {
          "internalType": "address",
          "name": "spender",
          "type": "address"
        }
      ],
      "name": "allowance",
      "outputs": [
        {
          "internalType": "uint256",
          "name": "",
          "type": "uint256"
        }
      ],
      "stateMutability": "view",
      "type": "function"
    },
    {
      "inputs": [
        {
          "internalType": "address",
          "name": "spender",
          "type": "address"
        },
        {
          "internalType": "uint256",
          "name": "value",
          "type": "uint256"
        }
      ],
      "name": "approve",
      "outputs": [
        {
          "internalType": "bool",
          "name": "",
          "type": "bool"
        }
      ],
      "stateMutability": "nonpayable",
      "type": "function"
    },
    {
      "inputs": [
        {
          "internalType": "address",
          "name": "account",
          "type": "address"
        }
      ],
      "name": "balanceOf",
      "outputs": [
        {
          "internalType": "uint256",
          "name": "",
          "type": "uint256"
        }
      ],
      "stateMutability": "view",
      "type": "function"
    },
    {
      "inputs": [],
      "name": "decimals",
      "outputs": [
        {
          "internalType": "uint8",
          "name": "",
          "type": "uint8"
        }
      ],
      "stateMutability": "view",
      "type": "function"
    },
    {
      "inputs": [],
      "name": "eip712Domain",
      "outputs": [
        {
          "internalType": "bytes1",
          "name": "fields",
          "type": "bytes1"
        },
        {
          "internalType": "string",
          "name": "name",
          "type": "string"
        },
        {
          "internalType": "string",
          "name": "version",
          "type": "string"
        },
        {
          "internalType": "uint256",
          "name": "chainId",
          "type": "uint256"
        },
        {
          "internalType": "address",
          "name": "verifyingContract",
          "type": "address"
        },
        {
          "internalType": "bytes32",
          "name": "salt",
          "type": "bytes32"
        },
        {
          "internalType": "uint256[]",
          "name": "extensions",
          "type": "uint256[]"
        }
      ],
      "stateMutability": "view",
      "type": "function"
    },
    {
      "inputs": [
        {
          "internalType": "uint256",
          "name": "objects",
          "type": "uint256"
        },
        {
          "internalType": "address",
          "name": "multisig",
          "type": "address"
        }
      ],
      "name": "initialize",
      "outputs": [],
      "stateMutability": "nonpayable",
      "type": "function"
    },
    {
      "inputs": [],
      "name": "name",
      "outputs": [
        {
          "internalType": "string",
          "name": "",
          "type": "string"
        }
      ],
      "stateMutability": "view",
      "type": "function"
    },
    {
      "inputs": [
        {
          "internalType": "address",
          "name": "owner",
          "type": "address"
        }
      ],
      "name": "nonces",
      "outputs": [
        {
          "internalType": "uint256",
          "name": "",
          "type": "uint256"
        }
      ],
      "stateMutability": "view",
      "type": "function"
    },
    {
      "inputs": [],
      "name": "numberOfObjects",
      "outputs": [
        {
          "internalType": "uint256",
          "name": "",
          "type": "uint256"
        }
      ],
      "stateMutability": "view",
      "type": "function"
    },
    {
      "inputs": [],
      "name": "owner",
      "outputs": [
        {
          "internalType": "address",
          "name": "",
          "type": "address"
        }
      ],
      "stateMutability": "view",
      "type": "function"
    },
    {
      "inputs": [
        {
          "internalType": "address",
          "name": "owner",
          "type": "address"
        },
        {
          "internalType": "address",
          "name": "spender",
          "type": "address"
        },
        {
          "internalType": "uint256",
          "name": "value",
          "type": "uint256"
        },
        {
          "internalType": "uint256",
          "name": "deadline",
          "type": "uint256"
        },
        {
          "internalType": "uint8",
          "name": "v",
          "type": "uint8"
        },
        {
          "internalType": "bytes32",
          "name": "r",
          "type": "bytes32"
        },
        {
          "internalType": "bytes32",
          "name": "s",
          "type": "bytes32"
        }
      ],
      "name": "permit",
      "outputs": [],
      "stateMutability": "nonpayable",
      "type": "function"
    },
    {
      "inputs": [],
      "name": "removeObject",
      "outputs": [],
      "stateMutability": "nonpayable",
      "type": "function"
    },
    {
      "inputs": [],
      "name": "renounceOwnership",
      "outputs": [],
      "stateMutability": "nonpayable",
      "type": "function"
    },
    {
      "inputs": [],
      "name": "symbol",
      "outputs": [
        {
          "internalType": "string",
          "name": "",
          "type": "string"
        }
      ],
      "stateMutability": "view",
      "type": "function"
    },
    {
      "inputs": [],
      "name": "totalSupply",
      "outputs": [
        {
          "internalType": "uint256",
          "name": "",
          "type": "uint256"
        }
      ],
      "stateMutability": "view",
      "type": "function"
    },
    {
      "inputs": [
        {
          "internalType": "address",
          "name": "to",
          "type": "address"
        },
        {
          "internalType": "uint256",
          "name": "value",
          "type": "uint256"
        }
      ],
      "name": "transfer",
      "outputs": [
        {
          "internalType": "bool",
          "name": "",
          "type": "bool"
        }
      ],
      "stateMutability": "nonpayable",
      "type": "function"
    },
    {
      "inputs": [
        {
          "internalType": "address",
          "name": "from",
          "type": "address"
        },
        {
          "internalType": "address",
          "name": "to",
          "type": "address"
        },
        {
          "internalType": "uint256",
          "name": "value",
          "type": "uint256"
        }
      ],
      "name": "transferFrom",
      "outputs": [
        {
          "internalType": "bool",
          "name": "",
          "type": "bool"
        }
      ],
      "stateMutability": "nonpayable",
      "type": "function"
    },
    {
      "inputs": [
        {
          "internalType": "address",
          "name": "newOwner",
          "type": "address"
        }
      ],
      "name": "transferOwnership",
      "outputs": [],
      "stateMutability": "nonpayable",
      "type": "function"
    }
  ],
  "bytecode": "0x608060405234801561001057600080fd5b50612b92806100206000396000f3fe608060405234801561001057600080fd5b50600436106101215760003560e01c8063715018a6116100ad578063a9059cbb11610071578063a9059cbb146102f0578063d505accf14610320578063da35a26f1461033c578063dd62ed3e14610358578063f2fde38b1461038857610121565b8063715018a6146102565780637ecebe001461026057806384b0196e146102905780638da5cb5b146102b457806395d89b41146102d257610121565b806323b872dd116100f457806323b872dd1461019c578063313ce567146101cc5780633644e515146101ea578063658504d11461020857806370a082311461022657610121565b806306fdde0314610126578063095ea7b31461014457806318160ddd146101745780632102ffaa14610192575b600080fd5b61012e6103a4565b60405161013b9190611dc7565b60405180910390f35b61015e60048036038101906101599190611e82565b610445565b60405161016b9190611edd565b60405180910390f35b61017c610468565b6040516101899190611f07565b60405180910390f35b61019a610480565b005b6101b660048036038101906101b19190611f22565b6104e0565b6040516101c39190611edd565b60405180910390f35b6101d461050f565b6040516101e19190611f91565b60405180910390f35b6101f2610518565b6040516101ff9190611fc5565b60405180910390f35b610210610527565b60405161021d9190611f07565b60405180910390f35b610240600480360381019061023b9190611fe0565b61052d565b60405161024d9190611f07565b60405180910390f35b61025e610584565b005b61027a60048036038101906102759190611fe0565b610598565b6040516102879190611f07565b60405180910390f35b6102986105aa565b6040516102ab9796959493929190612115565b60405180910390f35b6102bc6106bc565b6040516102c99190612199565b60405180910390f35b6102da6106f4565b6040516102e79190611dc7565b60405180910390f35b61030a60048036038101906103059190611e82565b610795565b6040516103179190611edd565b60405180910390f35b61033a6004803603810190610335919061220c565b6107b8565b005b610356600480360381019061035191906122ae565b610900565b005b610372600480360381019061036d91906122ee565b610b75565b60405161037f9190611f07565b60405180910390f35b6103a2600480360381019061039d9190611fe0565b610c0a565b005b606060006103b0610c90565b90508060030180546103c19061235d565b80601f01602080910402602001604051908101604052809291908181526020018280546103ed9061235d565b801561043a5780601f1061040f5761010080835404028352916020019161043a565b820191906000526020600020905b81548152906001019060200180831161041d57829003601f168201915b505050505091505090565b600080610450610cb8565b905061045d818585610cc0565b600191505092915050565b600080610473610c90565b9050806002015491505090565b6001600054116104c5576040517f08c379a00000000000000000000000000000000000000000000000000000000081526004016104bc906123da565b60405180910390fd5b60016000808282546104d79190612429565b92505081905550565b6000806104eb610cb8565b90506104f8858285610cd2565b610503858585610d66565b60019150509392505050565b60006012905090565b6000610522610e5a565b905090565b60005481565b600080610538610c90565b90508060000160008473ffffffffffffffffffffffffffffffffffffffff1673ffffffffffffffffffffffffffffffffffffffff16815260200190815260200160002054915050919050565b61058c610e69565b6105966000610ef0565b565b60006105a382610fc7565b9050919050565b60006060806000806000606060006105c061101e565b90506000801b81600001541480156105de57506000801b8160010154145b61061d576040517f08c379a0000000000000000000000000000000000000000000000000000000008152600401610614906124a9565b60405180910390fd5b610625611046565b61062d6110e7565b46306000801b600067ffffffffffffffff81111561064e5761064d6124c9565b5b60405190808252806020026020018201604052801561067c5781602001602082028036833780820191505090505b507f0f0000000000000000000000000000000000000000000000000000000000000095949392919097509750975097509750975097505090919293949596565b6000806106c7611188565b90508060000160009054906101000a900473ffffffffffffffffffffffffffffffffffffffff1691505090565b60606000610700610c90565b90508060040180546107119061235d565b80601f016020809104026020016040519081016040528092919081815260200182805461073d9061235d565b801561078a5780601f1061075f5761010080835404028352916020019161078a565b820191906000526020600020905b81548152906001019060200180831161076d57829003601f168201915b505050505091505090565b6000806107a0610cb8565b90506107ad818585610d66565b600191505092915050565b834211156107fd57836040517f627913020000000000000000000000000000000000000000000000000000000081526004016107f49190611f07565b60405180910390fd5b60007f6e71edae12b1b97f4d1f60370fef10105fa2faae0126114a169c64845d6126c988888861082c8c6111b0565b89604051602001610842969594939291906124f8565b604051602081830303815290604052805190602001209050600061086582611215565b905060006108758287878761122f565b90508973ffffffffffffffffffffffffffffffffffffffff168173ffffffffffffffffffffffffffffffffffffffff16146108e957808a6040517f4b800e460000000000000000000000000000000000000000000000000000000081526004016108e0929190612559565b60405180910390fd5b6108f48a8a8a610cc0565b50505050505050505050565b600061090a61125f565b905060008160000160089054906101000a900460ff1615905060008260000160009054906101000a900467ffffffffffffffff1690506000808267ffffffffffffffff161480156109585750825b9050600060018367ffffffffffffffff1614801561098d575060003073ffffffffffffffffffffffffffffffffffffffff163b145b90508115801561099b575080155b156109d2576040517ff92ee8a900000000000000000000000000000000000000000000000000000000815260040160405180910390fd5b60018560000160006101000a81548167ffffffffffffffff021916908367ffffffffffffffff1602179055508315610a225760018560000160086101000a81548160ff0219169083151502179055505b610a2b86611287565b610a9f6040518060400160405280600981526020017f475245454e4c414e4400000000000000000000000000000000000000000000008152506040518060400160405280600381526020017f474c44000000000000000000000000000000000000000000000000000000000081525061129b565b610add6040518060400160405280600981526020017f475245454e4c414e4400000000000000000000000000000000000000000000008152506112b1565b610b0933610ae961050f565b600a610af591906126b5565b633b9aca00610b049190612700565b6112fb565b866000819055508315610b6c5760008560000160086101000a81548160ff0219169083151502179055507fc7f505b2f371ae2175ee4913f4499e1f2633a7b5936321eed1cdaeb6115181d26001604051610b63919061279b565b60405180910390a15b50505050505050565b600080610b80610c90565b90508060010160008573ffffffffffffffffffffffffffffffffffffffff1673ffffffffffffffffffffffffffffffffffffffff16815260200190815260200160002060008473ffffffffffffffffffffffffffffffffffffffff1673ffffffffffffffffffffffffffffffffffffffff1681526020019081526020016000205491505092915050565b610c12610e69565b600073ffffffffffffffffffffffffffffffffffffffff168173ffffffffffffffffffffffffffffffffffffffff1603610c845760006040517f1e4fbdf7000000000000000000000000000000000000000000000000000000008152600401610c7b9190612199565b60405180910390fd5b610c8d81610ef0565b50565b60007f52c63247e1f47db19d5ce0460030c497f067ca4cebf71ba98eeadabe20bace00905090565b600033905090565b610ccd838383600161137d565b505050565b6000610cde8484610b75565b90507fffffffffffffffffffffffffffffffffffffffffffffffffffffffffffffffff8114610d605781811015610d50578281836040517ffb8f41b2000000000000000000000000000000000000000000000000000000008152600401610d47939291906127b6565b60405180910390fd5b610d5f8484848403600061137d565b5b50505050565b600073ffffffffffffffffffffffffffffffffffffffff168373ffffffffffffffffffffffffffffffffffffffff1603610dd85760006040517f96c6fd1e000000000000000000000000000000000000000000000000000000008152600401610dcf9190612199565b60405180910390fd5b600073ffffffffffffffffffffffffffffffffffffffff168273ffffffffffffffffffffffffffffffffffffffff1603610e4a5760006040517fec442f05000000000000000000000000000000000000000000000000000000008152600401610e419190612199565b60405180910390fd5b610e55838383611563565b505050565b6000610e646117a2565b905090565b610e71610cb8565b73ffffffffffffffffffffffffffffffffffffffff16610e8f6106bc565b73ffffffffffffffffffffffffffffffffffffffff1614610eee57610eb2610cb8565b6040517f118cdaa7000000000000000000000000000000000000000000000000000000008152600401610ee59190612199565b60405180910390fd5b565b6000610efa611188565b905060008160000160009054906101000a900473ffffffffffffffffffffffffffffffffffffffff169050828260000160006101000a81548173ffffffffffffffffffffffffffffffffffffffff021916908373ffffffffffffffffffffffffffffffffffffffff1602179055508273ffffffffffffffffffffffffffffffffffffffff168173ffffffffffffffffffffffffffffffffffffffff167f8be0079c531659141344cd1fd0a4f28419497f9722a3daafe3b4186f6b6457e060405160405180910390a3505050565b600080610fd2611806565b90508060000160008473ffffffffffffffffffffffffffffffffffffffff1673ffffffffffffffffffffffffffffffffffffffff16815260200190815260200160002054915050919050565b60007fa16a46d94261c7517cc8ff89f61c0ce93598e3c849801011dee649a6a557d100905090565b6060600061105261101e565b90508060020180546110639061235d565b80601f016020809104026020016040519081016040528092919081815260200182805461108f9061235d565b80156110dc5780601f106110b1576101008083540402835291602001916110dc565b820191906000526020600020905b8154815290600101906020018083116110bf57829003601f168201915b505050505091505090565b606060006110f361101e565b90508060030180546111049061235d565b80601f01602080910402602001604051908101604052809291908181526020018280546111309061235d565b801561117d5780601f106111525761010080835404028352916020019161117d565b820191906000526020600020905b81548152906001019060200180831161116057829003601f168201915b505050505091505090565b60007f9016d09d72d40fdae2fd8ceac6b6234c7706214fd39c1cd1e609a0528c199300905090565b6000806111bb611806565b90508060000160008473ffffffffffffffffffffffffffffffffffffffff1673ffffffffffffffffffffffffffffffffffffffff168152602001908152602001600020600081548092919060010191905055915050919050565b6000611228611222610e5a565b8361182e565b9050919050565b6000806000806112418888888861186f565b9250925092506112518282611963565b829350505050949350505050565b60007ff0c57e16840df040f15088dc2f81fe391c3923bec73e23a9662efc9c229c6a00905090565b61128f611ac7565b61129881611b07565b50565b6112a3611ac7565b6112ad8282611b8d565b5050565b6112b9611ac7565b6112f8816040518060400160405280600181526020017f3100000000000000000000000000000000000000000000000000000000000000815250611bca565b50565b600073ffffffffffffffffffffffffffffffffffffffff168273ffffffffffffffffffffffffffffffffffffffff160361136d5760006040517fec442f050000000000000000000000000000000000000000000000000000000081526004016113649190612199565b60405180910390fd5b61137960008383611563565b5050565b6000611387610c90565b9050600073ffffffffffffffffffffffffffffffffffffffff168573ffffffffffffffffffffffffffffffffffffffff16036113fb5760006040517fe602df050000000000000000000000000000000000000000000000000000000081526004016113f29190612199565b60405180910390fd5b600073ffffffffffffffffffffffffffffffffffffffff168473ffffffffffffffffffffffffffffffffffffffff160361146d5760006040517f94280d620000000000000000000000000000000000000000000000000000000081526004016114649190612199565b60405180910390fd5b828160010160008773ffffffffffffffffffffffffffffffffffffffff1673ffffffffffffffffffffffffffffffffffffffff16815260200190815260200160002060008673ffffffffffffffffffffffffffffffffffffffff1673ffffffffffffffffffffffffffffffffffffffff16815260200190815260200160002081905550811561155c578373ffffffffffffffffffffffffffffffffffffffff168573ffffffffffffffffffffffffffffffffffffffff167f8c5be1e5ebec7d5bd14f71427d1e84f3dd0314c0f7b2291e5b200ac8c7c3b925856040516115539190611f07565b60405180910390a35b5050505050565b600061156d610c90565b9050600073ffffffffffffffffffffffffffffffffffffffff168473ffffffffffffffffffffffffffffffffffffffff16036115c357818160020160008282546115b791906127ed565b9250508190555061169c565b60008160000160008673ffffffffffffffffffffffffffffffffffffffff1673ffffffffffffffffffffffffffffffffffffffff16815260200190815260200160002054905082811015611652578481846040517fe450d38c000000000000000000000000000000000000000000000000000000008152600401611649939291906127b6565b60405180910390fd5b8281038260000160008773ffffffffffffffffffffffffffffffffffffffff1673ffffffffffffffffffffffffffffffffffffffff16815260200190815260200160002081905550505b600073ffffffffffffffffffffffffffffffffffffffff168373ffffffffffffffffffffffffffffffffffffffff16036116e757818160020160008282540392505081905550611737565b818160000160008573ffffffffffffffffffffffffffffffffffffffff1673ffffffffffffffffffffffffffffffffffffffff168152602001908152602001600020600082825401925050819055505b8273ffffffffffffffffffffffffffffffffffffffff168473ffffffffffffffffffffffffffffffffffffffff167fddf252ad1be2c89b69c2b068fc378daa952ba7f163c4a11628f55a4df523b3ef846040516117949190611f07565b60405180910390a350505050565b60007f8b73c3c69bb8fe3d512ecc4cf759cc79239f7b179b0ffacaa9a75d522b39400f6117cd611c1f565b6117d5611c9b565b46306040516020016117eb959493929190612821565b60405160208183030381529060405280519060200120905090565b60007f5ab42ced628888259c08ac98db1eb0cf702fc1501344311d8b100cd1bfe4bb00905090565b60006040517f190100000000000000000000000000000000000000000000000000000000000081528360028201528260228201526042812091505092915050565b60008060007f7fffffffffffffffffffffffffffffff5d576e7357a4501ddfe92f46681b20a08460001c11156118af576000600385925092509250611959565b6000600188888888604051600081526020016040526040516118d49493929190612874565b6020604051602081039080840390855afa1580156118f6573d6000803e3d6000fd5b505050602060405103519050600073ffffffffffffffffffffffffffffffffffffffff168173ffffffffffffffffffffffffffffffffffffffff160361194a57600060016000801b93509350935050611959565b8060008060001b935093509350505b9450945094915050565b60006003811115611977576119766128b9565b5b82600381111561198a576119896128b9565b5b0315611ac357600160038111156119a4576119a36128b9565b5b8260038111156119b7576119b66128b9565b5b036119ee576040517ff645eedf00000000000000000000000000000000000000000000000000000000815260040160405180910390fd5b60026003811115611a0257611a016128b9565b5b826003811115611a1557611a146128b9565b5b03611a5a578060001c6040517ffce698f7000000000000000000000000000000000000000000000000000000008152600401611a519190611f07565b60405180910390fd5b600380811115611a6d57611a6c6128b9565b5b826003811115611a8057611a7f6128b9565b5b03611ac257806040517fd78bce0c000000000000000000000000000000000000000000000000000000008152600401611ab99190611fc5565b60405180910390fd5b5b5050565b611acf611d17565b611b05576040517fd7e6bcf800000000000000000000000000000000000000000000000000000000815260040160405180910390fd5b565b611b0f611ac7565b600073ffffffffffffffffffffffffffffffffffffffff168173ffffffffffffffffffffffffffffffffffffffff1603611b815760006040517f1e4fbdf7000000000000000000000000000000000000000000000000000000008152600401611b789190612199565b60405180910390fd5b611b8a81610ef0565b50565b611b95611ac7565b6000611b9f610c90565b905082816003019081611bb29190612a8a565b5081816004019081611bc49190612a8a565b50505050565b611bd2611ac7565b6000611bdc61101e565b905082816002019081611bef9190612a8a565b5081816003019081611c019190612a8a565b506000801b81600001819055506000801b8160010181905550505050565b600080611c2a61101e565b90506000611c36611046565b9050600081511115611c5357808051906020012092505050611c98565b6000826000015490506000801b8114611c7157809350505050611c98565b7fc5d2460186f7233c927e7db2dcc703c0e500b653ca82273b7bfad8045d85a47093505050505b90565b600080611ca661101e565b90506000611cb26110e7565b9050600081511115611ccf57808051906020012092505050611d14565b6000826001015490506000801b8114611ced57809350505050611d14565b7fc5d2460186f7233c927e7db2dcc703c0e500b653ca82273b7bfad8045d85a47093505050505b90565b6000611d2161125f565b60000160089054906101000a900460ff16905090565b600081519050919050565b600082825260208201905092915050565b60005b83811015611d71578082015181840152602081019050611d56565b60008484015250505050565b6000601f19601f8301169050919050565b6000611d9982611d37565b611da38185611d42565b9350611db3818560208601611d53565b611dbc81611d7d565b840191505092915050565b60006020820190508181036000830152611de18184611d8e565b905092915050565b600080fd5b600073ffffffffffffffffffffffffffffffffffffffff82169050919050565b6000611e1982611dee565b9050919050565b611e2981611e0e565b8114611e3457600080fd5b50565b600081359050611e4681611e20565b92915050565b6000819050919050565b611e5f81611e4c565b8114611e6a57600080fd5b50565b600081359050611e7c81611e56565b92915050565b60008060408385031215611e9957611e98611de9565b5b6000611ea785828601611e37565b9250506020611eb885828601611e6d565b9150509250929050565b60008115159050919050565b611ed781611ec2565b82525050565b6000602082019050611ef26000830184611ece565b92915050565b611f0181611e4c565b82525050565b6000602082019050611f1c6000830184611ef8565b92915050565b600080600060608486031215611f3b57611f3a611de9565b5b6000611f4986828701611e37565b9350506020611f5a86828701611e37565b9250506040611f6b86828701611e6d565b9150509250925092565b600060ff82169050919050565b611f8b81611f75565b82525050565b6000602082019050611fa66000830184611f82565b92915050565b6000819050919050565b611fbf81611fac565b82525050565b6000602082019050611fda6000830184611fb6565b92915050565b600060208284031215611ff657611ff5611de9565b5b600061200484828501611e37565b91505092915050565b60007fff0000000000000000000000000000000000000000000000000000000000000082169050919050565b6120428161200d565b82525050565b61205181611e0e565b82525050565b600081519050919050565b600082825260208201905092915050565b6000819050602082019050919050565b61208c81611e4c565b82525050565b600061209e8383612083565b60208301905092915050565b6000602082019050919050565b60006120c282612057565b6120cc8185612062565b93506120d783612073565b8060005b838110156121085781516120ef8882612092565b97506120fa836120aa565b9250506001810190506120db565b5085935050505092915050565b600060e08201905061212a600083018a612039565b818103602083015261213c8189611d8e565b905081810360408301526121508188611d8e565b905061215f6060830187611ef8565b61216c6080830186612048565b61217960a0830185611fb6565b81810360c083015261218b81846120b7565b905098975050505050505050565b60006020820190506121ae6000830184612048565b92915050565b6121bd81611f75565b81146121c857600080fd5b50565b6000813590506121da816121b4565b92915050565b6121e981611fac565b81146121f457600080fd5b50565b600081359050612206816121e0565b92915050565b600080600080600080600060e0888a03121561222b5761222a611de9565b5b60006122398a828b01611e37565b975050602061224a8a828b01611e37565b965050604061225b8a828b01611e6d565b955050606061226c8a828b01611e6d565b945050608061227d8a828b016121cb565b93505060a061228e8a828b016121f7565b92505060c061229f8a828b016121f7565b91505092959891949750929550565b600080604083850312156122c5576122c4611de9565b5b60006122d385828601611e6d565b92505060206122e485828601611e37565b9150509250929050565b6000806040838503121561230557612304611de9565b5b600061231385828601611e37565b925050602061232485828601611e37565b9150509250929050565b7f4e487b7100000000000000000000000000000000000000000000000000000000600052602260045260246000fd5b6000600282049050600182168061237557607f821691505b6020821081036123885761238761232e565b5b50919050565b7f4e6f7468696e6720696e73696465000000000000000000000000000000000000600082015250565b60006123c4600e83611d42565b91506123cf8261238e565b602082019050919050565b600060208201905081810360008301526123f3816123b7565b9050919050565b7f4e487b7100000000000000000000000000000000000000000000000000000000600052601160045260246000fd5b600061243482611e4c565b915061243f83611e4c565b9250828203905081811115612457576124566123fa565b5b92915050565b7f4549503731323a20556e696e697469616c697a65640000000000000000000000600082015250565b6000612493601583611d42565b915061249e8261245d565b602082019050919050565b600060208201905081810360008301526124c281612486565b9050919050565b7f4e487b7100000000000000000000000000000000000000000000000000000000600052604160045260246000fd5b600060c08201905061250d6000830189611fb6565b61251a6020830188612048565b6125276040830187612048565b6125346060830186611ef8565b6125416080830185611ef8565b61254e60a0830184611ef8565b979650505050505050565b600060408201905061256e6000830185612048565b61257b6020830184612048565b9392505050565b60008160011c9050919050565b6000808291508390505b60018511156125d9578086048111156125b5576125b46123fa565b5b60018516156125c45780820291505b80810290506125d285612582565b9450612599565b94509492505050565b6000826125f257600190506126ae565b8161260057600090506126ae565b816001811461261657600281146126205761264f565b60019150506126ae565b60ff841115612632576126316123fa565b5b8360020a915084821115612649576126486123fa565b5b506126ae565b5060208310610133831016604e8410600b84101617156126845782820a90508381111561267f5761267e6123fa565b5b6126ae565b612691848484600161258f565b925090508184048111156126a8576126a76123fa565b5b81810290505b9392505050565b60006126c082611e4c565b91506126cb83611f75565b92506126f87fffffffffffffffffffffffffffffffffffffffffffffffffffffffffffffffff84846125e2565b905092915050565b600061270b82611e4c565b915061271683611e4c565b925082820261272481611e4c565b9150828204841483151761273b5761273a6123fa565b5b5092915050565b6000819050919050565b600067ffffffffffffffff82169050919050565b6000819050919050565b600061278561278061277b84612742565b612760565b61274c565b9050919050565b6127958161276a565b82525050565b60006020820190506127b0600083018461278c565b92915050565b60006060820190506127cb6000830186612048565b6127d86020830185611ef8565b6127e56040830184611ef8565b949350505050565b60006127f882611e4c565b915061280383611e4c565b925082820190508082111561281b5761281a6123fa565b5b92915050565b600060a0820190506128366000830188611fb6565b6128436020830187611fb6565b6128506040830186611fb6565b61285d6060830185611ef8565b61286a6080830184612048565b9695505050505050565b60006080820190506128896000830187611fb6565b6128966020830186611f82565b6128a36040830185611fb6565b6128b06060830184611fb6565b95945050505050565b7f4e487b7100000000000000000000000000000000000000000000000000000000600052602160045260246000fd5b60008190508160005260206000209050919050565b60006020601f8301049050919050565b600082821b905092915050565b60006008830261294a7fffffffffffffffffffffffffffffffffffffffffffffffffffffffffffffffff8261290d565b612954868361290d565b95508019841693508086168417925050509392505050565b600061298761298261297d84611e4c565b612760565b611e4c565b9050919050565b6000819050919050565b6129a18361296c565b6129b56129ad8261298e565b84845461291a565b825550505050565b600090565b6129ca6129bd565b6129d5818484612998565b505050565b5b818110156129f9576129ee6000826129c2565b6001810190506129db565b5050565b601f821115612a3e57612a0f816128e8565b612a18846128fd565b81016020851015612a27578190505b612a3b612a33856128fd565b8301826129da565b50505b505050565b600082821c905092915050565b6000612a6160001984600802612a43565b1980831691505092915050565b6000612a7a8383612a50565b9150826002028217905092915050565b612a9382611d37565b67ffffffffffffffff811115612aac57612aab6124c9565b5b612ab6825461235d565b612ac18282856129fd565b600060209050601f831160018114612af45760008415612ae2578287015190505b612aec8582612a6e565b865550612b54565b601f198416612b02866128e8565b60005b82811015612b2a57848901518255600182019150602085019450602081019050612b05565b86831015612b475784890151612b43601f891682612a50565b8355505b6001600288020188555050505b50505050505056fea26469706673582212205be5ac2a9b90ae03e6bd6f8a0035375867ab03005355077d257c0c5d050b5a4964736f6c63430008180033",
  "linkReferences": {},
  "deployedLinkReferences": {}
}